{
  "contractName": "Contest",
  "abi": [
    {
      "inputs": [],
      "payable": false,
      "stateMutability": "nonpayable",
      "type": "constructor"
    },
    {
      "constant": true,
      "inputs": [],
      "name": "admin",
      "outputs": [
        {
          "internalType": "address",
          "name": "",
          "type": "address"
        }
      ],
      "payable": false,
      "stateMutability": "view",
      "type": "function"
    },
    {
      "constant": true,
      "inputs": [
        {
          "internalType": "uint256",
          "name": "",
          "type": "uint256"
        }
      ],
      "name": "contestants",
      "outputs": [
        {
          "internalType": "uint256",
          "name": "id",
          "type": "uint256"
        },
        {
          "internalType": "string",
          "name": "name",
          "type": "string"
        },
        {
          "internalType": "uint256",
          "name": "voteCount",
          "type": "uint256"
        },
        {
          "internalType": "string",
          "name": "party",
          "type": "string"
        },
        {
          "internalType": "uint256",
          "name": "age",
          "type": "uint256"
        },
        {
          "internalType": "string",
          "name": "qualification",
          "type": "string"
        }
      ],
      "payable": false,
      "stateMutability": "view",
      "type": "function"
    },
    {
      "constant": true,
      "inputs": [],
      "name": "contestantsCount",
      "outputs": [
        {
          "internalType": "uint256",
          "name": "",
          "type": "uint256"
        }
      ],
      "payable": false,
      "stateMutability": "view",
      "type": "function"
    },
    {
      "constant": true,
      "inputs": [],
      "name": "state",
      "outputs": [
        {
          "internalType": "enum Contest.PHASE",
          "name": "",
          "type": "uint8"
        }
      ],
      "payable": false,
      "stateMutability": "view",
      "type": "function"
    },
    {
      "constant": true,
      "inputs": [
        {
          "internalType": "address",
          "name": "",
          "type": "address"
        }
      ],
      "name": "voters",
      "outputs": [
        {
          "internalType": "bool",
          "name": "hasVoted",
          "type": "bool"
        },
        {
          "internalType": "uint256",
          "name": "vote",
          "type": "uint256"
        },
        {
          "internalType": "bool",
          "name": "isRegistered",
          "type": "bool"
        }
      ],
      "payable": false,
      "stateMutability": "view",
      "type": "function"
    },
    {
      "constant": false,
      "inputs": [
        {
          "internalType": "enum Contest.PHASE",
          "name": "x",
          "type": "uint8"
        }
      ],
      "name": "changeState",
      "outputs": [],
      "payable": false,
      "stateMutability": "nonpayable",
      "type": "function"
    },
    {
      "constant": false,
      "inputs": [
        {
          "internalType": "string",
          "name": "_name",
          "type": "string"
        },
        {
          "internalType": "string",
          "name": "_party",
          "type": "string"
        },
        {
          "internalType": "uint256",
          "name": "_age",
          "type": "uint256"
        },
        {
          "internalType": "string",
          "name": "_qualification",
          "type": "string"
        }
      ],
      "name": "addContestant",
      "outputs": [],
      "payable": false,
      "stateMutability": "nonpayable",
      "type": "function"
    },
    {
      "constant": false,
      "inputs": [
        {
          "internalType": "address",
          "name": "user",
          "type": "address"
        }
      ],
      "name": "voterRegisteration",
      "outputs": [],
      "payable": false,
      "stateMutability": "nonpayable",
      "type": "function"
    },
    {
      "constant": false,
      "inputs": [
        {
          "internalType": "uint256",
          "name": "_contestantId",
          "type": "uint256"
        }
      ],
      "name": "vote",
      "outputs": [],
      "payable": false,
      "stateMutability": "nonpayable",
      "type": "function"
    },
    {
      "constant": true,
      "inputs": [],
      "name": "getAdmin",
      "outputs": [
        {
          "internalType": "address",
          "name": "",
          "type": "address"
        }
      ],
      "payable": false,
      "stateMutability": "view",
      "type": "function"
    }
  ],
  "bytecode": "0x608060405234801561001057600080fd5b50600080546001600160a01b031916331781556004805460ff19169055610ce290819061003d90396000f3fe608060405234801561001057600080fd5b506004361061009e5760003560e01c8063c19d93fb11610066578063c19d93fb14610174578063dfd50f52146101a0578063ec63d1c814610316578063ef32818614610330578063f851a440146104ec5761009e565b80630121b93f146100a3578063268f1153146100c2578063698ceb5f146100e25780636e9960c314610108578063a3ec138d1461012c575b600080fd5b6100c0600480360360208110156100b957600080fd5b50356104f4565b005b6100c0600480360360208110156100d857600080fd5b503560ff166106af565b6100c0600480360360208110156100f857600080fd5b50356001600160a01b0316610788565b610110610860565b604080516001600160a01b039092168252519081900360200190f35b6101526004803603602081101561014257600080fd5b50356001600160a01b0316610870565b6040805193151584526020840192909252151582820152519081900360600190f35b61017c610897565b6040518082600281111561018c57fe5b60ff16815260200191505060405180910390f35b6101bd600480360360208110156101b657600080fd5b50356108a0565b60405180878152602001806020018681526020018060200185815260200180602001848103845289818151815260200191508051906020019080838360005b838110156102145781810151838201526020016101fc565b50505050905090810190601f1680156102415780820380516001836020036101000a031916815260200191505b50848103835287518152875160209182019189019080838360005b8381101561027457818101518382015260200161025c565b50505050905090810190601f1680156102a15780820380516001836020036101000a031916815260200191505b50848103825285518152855160209182019187019080838360005b838110156102d45781810151838201526020016102bc565b50505050905090810190601f1680156103015780820380516001836020036101000a031916815260200191505b50995050505050505050505060405180910390f35b61031e610a75565b60408051918252519081900360200190f35b6100c06004803603608081101561034657600080fd5b81019060208101813564010000000081111561036157600080fd5b82018360208201111561037357600080fd5b8035906020019184600183028401116401000000008311171561039557600080fd5b91908080601f01602080910402602001604051908101604052809392919081815260200183838082843760009201919091525092959493602081019350359150506401000000008111156103e857600080fd5b8201836020820111156103fa57600080fd5b8035906020019184600183028401116401000000008311171561041c57600080fd5b91908080601f0160208091040260200160405190810160405280939291908181526020018383808284376000920191909152509295843595909490935060408101925060200135905064010000000081111561047757600080fd5b82018360208201111561048957600080fd5b803590602001918460018302840111640100000000831117156104ab57600080fd5b91908080601f016020809104026020016040519081016040528093929190818152602001838380828437600092019190915250929550610a7b945050505050565b610110610be5565b60018060045460ff16600281111561050857fe5b1461055a576040805162461bcd60e51b815260206004820152601d60248201527f496e76616c696420737461746520666f72207468697320616374696f6e000000604482015290519081900360640190fd5b336000908152600260208190526040909120015460ff166105c2576040805162461bcd60e51b815260206004820152601e60248201527f596f75206d757374206265207265676973746572656420746f20766f74650000604482015290519081900360640190fd5b3360009081526002602052604090205460ff1615610620576040805162461bcd60e51b8152602060048201526016602482015275165bdd481a185d9948185b1c9958591e481d9bdd195960521b604482015290519081900360640190fd5b60008211801561063257506003548211155b61067b576040805162461bcd60e51b8152602060048201526015602482015274125b9d985b1a590818dbdb9d195cdd185b9d081251605a1b604482015290519081900360640190fd5b5060008181526001602081815260408084206002908101805485019055338552909152909120805460ff1916821781550155565b6000546001600160a01b031633146106f85760405162461bcd60e51b8152600401808060200182810382526021815260200180610c8d6021913960400191505060405180910390fd5b60045460ff16600281111561070957fe5b81600281111561071557fe5b11610767576040805162461bcd60e51b815260206004820152601b60248201527f43616e6e6f7420676f206261636b7761726420696e2070686173650000000000604482015290519081900360640190fd5b6004805482919060ff1916600183600281111561078057fe5b021790555050565b6000546001600160a01b031633146107d15760405162461bcd60e51b8152600401808060200182810382526021815260200180610c8d6021913960400191505060405180910390fd5b60008060045460ff1660028111156107e557fe5b14610837576040805162461bcd60e51b815260206004820152601d60248201527f496e76616c696420737461746520666f72207468697320616374696f6e000000604482015290519081900360640190fd5b506001600160a01b0316600090815260026020819052604090912001805460ff19166001179055565b6000546001600160a01b03165b90565b600260208190526000918252604090912080546001820154919092015460ff928316921683565b60045460ff1681565b600160208181526000928352604092839020805481840180548651600296821615610100026000190190911695909504601f8101859004850286018501909652858552909491939290919083018282801561093c5780601f106109115761010080835404028352916020019161093c565b820191906000526020600020905b81548152906001019060200180831161091f57829003601f168201915b505050506002838101546003850180546040805160206001841615610100026000190190931695909504601f8101839004830286018301909152808552959692959294509091908301828280156109d45780601f106109a9576101008083540402835291602001916109d4565b820191906000526020600020905b8154815290600101906020018083116109b757829003601f168201915b50505050600483015460058401805460408051602060026001851615610100026000190190941693909304601f81018490048402820184019092528181529596939593945090830182828015610a6b5780601f10610a4057610100808354040283529160200191610a6b565b820191906000526020600020905b815481529060010190602001808311610a4e57829003601f168201915b5050505050905086565b60035481565b6000546001600160a01b03163314610ac45760405162461bcd60e51b8152600401808060200182810382526021815260200180610c8d6021913960400191505060405180910390fd5b60008060045460ff166002811115610ad857fe5b14610b2a576040805162461bcd60e51b815260206004820152601d60248201527f496e76616c696420737461746520666f72207468697320616374696f6e000000604482015290519081900360640190fd5b600380546001908101918290556040805160c08101825283815260208082018a81526000838501819052606084018b9052608084018a905260a0840189905295865284825292909420815181559151805191949293610b8f9390850192910190610bf4565b506040820151600282015560608201518051610bb5916003840191602090910190610bf4565b506080820151600482015560a08201518051610bdb916005840191602090910190610bf4565b5050505050505050565b6000546001600160a01b031681565b828054600181600116156101000203166002900490600052602060002090601f016020900481019282601f10610c3557805160ff1916838001178555610c62565b82800160010185558215610c62579182015b82811115610c62578251825591602001919060010190610c47565b50610c6e929150610c72565b5090565b61086d91905b80821115610c6e5760008155600101610c7856fe4f6e6c792061646d696e2063616e2063616c6c20746869732066756e6374696f6ea265627a7a723158208f36bfa61061a97fa129ccb422efa6a87b10e554a9e5999df1450d12b47b750364736f6c63430005100032",
  "source": "pragma solidity 0.5.16;\r\n\r\ncontract Contest {\r\n\r\n    struct Contestant {\r\n        uint id;\r\n        string name;\r\n        uint voteCount;\r\n        string party;\r\n        uint age;\r\n        string qualification;\r\n    }\r\n\r\n    struct Voter {\r\n        bool hasVoted;\r\n        uint vote;\r\n        bool isRegistered;\r\n    }\r\n\r\n    address public admin; \r\n    mapping(uint => Contestant) public contestants; \r\n    mapping(address => Voter) public voters;\r\n    uint public contestantsCount;\r\n\r\n    enum PHASE { reg, voting, done }\r\n    PHASE public state;\r\n\r\n    modifier onlyAdmin() {\r\n        require(msg.sender == admin, \"Only admin can call this function\");\r\n        _;\r\n    }\r\n    \r\n    modifier validState(PHASE x) {\r\n        require(state == x, \"Invalid state for this action\");\r\n        _;\r\n    }\r\n\r\n    constructor() public {\r\n        admin = msg.sender; \r\n        state = PHASE.reg; \r\n    }\r\n\r\n    function changeState(PHASE x) public onlyAdmin {\r\n    require(x > state, \"Cannot go backward in phase\"); \r\n    state = x;\r\n}\r\n\r\n    function addContestant(string memory _name, string memory _party, uint _age, string memory _qualification) \r\n        public onlyAdmin validState(PHASE.reg) {\r\n        contestantsCount++;\r\n        contestants[contestantsCount] = Contestant(contestantsCount, _name, 0, _party, _age, _qualification);\r\n    }\r\n\r\n    function voterRegisteration(address user) public onlyAdmin validState(PHASE.reg) {\r\n        voters[user].isRegistered = true;\r\n    }\r\n\r\n    // Function to cast a vote\r\n    function vote(uint _contestantId) public validState(PHASE.voting) {\r\n        require(voters[msg.sender].isRegistered, \"You must be registered to vote\");\r\n        require(!voters[msg.sender].hasVoted, \"You have already voted\");\r\n        require(_contestantId > 0 && _contestantId <= contestantsCount, \"Invalid contestant ID\");\r\n        \r\n        contestants[_contestantId].voteCount++;\r\n        voters[msg.sender].hasVoted = true;\r\n        voters[msg.sender].vote = _contestantId;\r\n    }\r\n\r\n    // Getter for admin address\r\n    function getAdmin() public view returns (address) {\r\n        return admin;\r\n    }\r\n}\r\n",
  "sourcePath": "D:\\My_Data_XoanDev_2\\DATA_ALL_SUBJECT\\Blockchain\\1721030860_NguyenNhatHuynh_CN_Blockchain\\Source\\demo\\contracts\\Contest.sol",
  "compiler": {
    "name": "solc",
    "version": "0.5.16+commit.9c3226ce.Emscripten.clang"
  },
  "schemaVersion": "3.4.16",
  "updatedAt": "2025-04-22T06:51:49.523Z",
  "networkType": "ethereum",
  "devdoc": {
    "methods": {}
  },
  "userdoc": {
    "methods": {}
  }
}